{
  "_format": "hh-sol-artifact-1",
  "contractName": "CeloERC721",
  "sourceName": "contracts/CeloERC721.sol",
  "abi": [
    {
      "inputs": [
        {
          "internalType": "string",
          "name": "name",
          "type": "string"
        },
        {
          "internalType": "string",
          "name": "symbol",
          "type": "string"
        }
      ],
      "stateMutability": "nonpayable",
      "type": "constructor"
    },
    {
      "anonymous": false,
      "inputs": [
        {
          "indexed": true,
          "internalType": "address",
          "name": "owner",
          "type": "address"
        },
        {
          "indexed": true,
          "internalType": "address",
          "name": "approved",
          "type": "address"
        },
        {
          "indexed": true,
          "internalType": "uint256",
          "name": "tokenId",
          "type": "uint256"
        }
      ],
      "name": "Approval",
      "type": "event"
    },
    {
      "anonymous": false,
      "inputs": [
        {
          "indexed": true,
          "internalType": "address",
          "name": "owner",
          "type": "address"
        },
        {
          "indexed": true,
          "internalType": "address",
          "name": "operator",
          "type": "address"
        },
        {
          "indexed": false,
          "internalType": "bool",
          "name": "approved",
          "type": "bool"
        }
      ],
      "name": "ApprovalForAll",
      "type": "event"
    },
    {
      "anonymous": false,
      "inputs": [
        {
          "indexed": true,
          "internalType": "address",
          "name": "from",
          "type": "address"
        },
        {
          "indexed": true,
          "internalType": "address",
          "name": "to",
          "type": "address"
        },
        {
          "indexed": true,
          "internalType": "uint256",
          "name": "tokenId",
          "type": "uint256"
        }
      ],
      "name": "Transfer",
      "type": "event"
    },
    {
      "inputs": [
        {
          "internalType": "uint256",
          "name": "",
          "type": "uint256"
        }
      ],
      "name": "_certificate_uris",
      "outputs": [
        {
          "internalType": "string",
          "name": "wallet",
          "type": "string"
        },
        {
          "internalType": "uint256",
          "name": "number",
          "type": "uint256"
        },
        {
          "internalType": "uint256",
          "name": "price",
          "type": "uint256"
        },
        {
          "internalType": "string",
          "name": "location",
          "type": "string"
        },
        {
          "internalType": "string",
          "name": "description",
          "type": "string"
        },
        {
          "internalType": "string",
          "name": "collection",
          "type": "string"
        },
        {
          "internalType": "string",
          "name": "date",
          "type": "string"
        },
        {
          "internalType": "string",
          "name": "image",
          "type": "string"
        }
      ],
      "stateMutability": "view",
      "type": "function"
    },
    {
      "inputs": [
        {
          "internalType": "address",
          "name": "to",
          "type": "address"
        },
        {
          "internalType": "uint256",
          "name": "tokenId",
          "type": "uint256"
        }
      ],
      "name": "approve",
      "outputs": [],
      "stateMutability": "nonpayable",
      "type": "function"
    },
    {
      "inputs": [
        {
          "internalType": "address",
          "name": "owner",
          "type": "address"
        }
      ],
      "name": "balanceOf",
      "outputs": [
        {
          "internalType": "uint256",
          "name": "",
          "type": "uint256"
        }
      ],
      "stateMutability": "view",
      "type": "function"
    },
    {
      "inputs": [
        {
          "internalType": "string",
          "name": "_claimer",
          "type": "string"
        },
        {
          "internalType": "uint256",
          "name": "number",
          "type": "uint256"
        },
        {
          "internalType": "uint256",
          "name": "price",
          "type": "uint256"
        },
        {
          "internalType": "string",
          "name": "location",
          "type": "string"
        },
        {
          "internalType": "string",
          "name": "description",
          "type": "string"
        },
        {
          "internalType": "string",
          "name": "collection",
          "type": "string"
        },
        {
          "internalType": "string",
          "name": "date",
          "type": "string"
        },
        {
          "internalType": "string",
          "name": "image",
          "type": "string"
        }
      ],
      "name": "create_certificate",
      "outputs": [
        {
          "internalType": "uint256",
          "name": "",
          "type": "uint256"
        }
      ],
      "stateMutability": "nonpayable",
      "type": "function"
    },
    {
      "inputs": [
        {
          "internalType": "uint256",
          "name": "tokenId",
          "type": "uint256"
        }
      ],
      "name": "getApproved",
      "outputs": [
        {
          "internalType": "address",
          "name": "",
          "type": "address"
        }
      ],
      "stateMutability": "view",
      "type": "function"
    },
    {
      "inputs": [
        {
          "internalType": "address",
          "name": "owner",
          "type": "address"
        },
        {
          "internalType": "address",
          "name": "operator",
          "type": "address"
        }
      ],
      "name": "isApprovedForAll",
      "outputs": [
        {
          "internalType": "bool",
          "name": "",
          "type": "bool"
        }
      ],
      "stateMutability": "view",
      "type": "function"
    },
    {
      "inputs": [],
      "name": "name",
      "outputs": [
        {
          "internalType": "string",
          "name": "",
          "type": "string"
        }
      ],
      "stateMutability": "view",
      "type": "function"
    },
    {
      "inputs": [
        {
          "internalType": "uint256",
          "name": "tokenId",
          "type": "uint256"
        }
      ],
      "name": "ownerOf",
      "outputs": [
        {
          "internalType": "address",
          "name": "",
          "type": "address"
        }
      ],
      "stateMutability": "view",
      "type": "function"
    },
    {
      "inputs": [],
      "name": "reset_all",
      "outputs": [],
      "stateMutability": "nonpayable",
      "type": "function"
    },
    {
      "inputs": [
        {
          "internalType": "address",
          "name": "from",
          "type": "address"
        },
        {
          "internalType": "address",
          "name": "to",
          "type": "address"
        },
        {
          "internalType": "uint256",
          "name": "tokenId",
          "type": "uint256"
        }
      ],
      "name": "safeTransferFrom",
      "outputs": [],
      "stateMutability": "nonpayable",
      "type": "function"
    },
    {
      "inputs": [
        {
          "internalType": "address",
          "name": "from",
          "type": "address"
        },
        {
          "internalType": "address",
          "name": "to",
          "type": "address"
        },
        {
          "internalType": "uint256",
          "name": "tokenId",
          "type": "uint256"
        },
        {
          "internalType": "bytes",
          "name": "_data",
          "type": "bytes"
        }
      ],
      "name": "safeTransferFrom",
      "outputs": [],
      "stateMutability": "nonpayable",
      "type": "function"
    },
    {
      "inputs": [
        {
          "internalType": "address",
          "name": "operator",
          "type": "address"
        },
        {
          "internalType": "bool",
          "name": "approved",
          "type": "bool"
        }
      ],
      "name": "setApprovalForAll",
      "outputs": [],
      "stateMutability": "nonpayable",
      "type": "function"
    },
    {
      "inputs": [
        {
          "internalType": "bytes4",
          "name": "interfaceId",
          "type": "bytes4"
        }
      ],
      "name": "supportsInterface",
      "outputs": [
        {
          "internalType": "bool",
          "name": "",
          "type": "bool"
        }
      ],
      "stateMutability": "view",
      "type": "function"
    },
    {
      "inputs": [],
      "name": "symbol",
      "outputs": [
        {
          "internalType": "string",
          "name": "",
          "type": "string"
        }
      ],
      "stateMutability": "view",
      "type": "function"
    },
    {
      "inputs": [
        {
          "internalType": "uint256",
          "name": "tokenId",
          "type": "uint256"
        }
      ],
      "name": "tokenURI",
      "outputs": [
        {
          "internalType": "string",
          "name": "",
          "type": "string"
        }
      ],
      "stateMutability": "view",
      "type": "function"
    },
    {
      "inputs": [
        {
          "internalType": "address",
          "name": "from",
          "type": "address"
        },
        {
          "internalType": "address",
          "name": "to",
          "type": "address"
        },
        {
          "internalType": "uint256",
          "name": "tokenId",
          "type": "uint256"
        }
      ],
      "name": "transferFrom",
      "outputs": [],
      "stateMutability": "nonpayable",
      "type": "function"
    },
    {
      "inputs": [
        {
          "internalType": "string",
          "name": "_claimer",
          "type": "string"
        },
        {
          "internalType": "uint256",
          "name": "number",
          "type": "uint256"
        }
      ],
      "name": "validate_certificate",
      "outputs": [
        {
          "internalType": "string",
          "name": "",
          "type": "string"
        }
      ],
      "stateMutability": "view",
      "type": "function"
    }
  ],
  "bytecode": "0x60806040523480156200001157600080fd5b5060405162003358380380620033588339818101604052810190620000379190620001a3565b818181600090805190602001906200005192919062000075565b5080600190805190602001906200006a92919062000075565b5050505050620003ac565b8280546200008390620002bd565b90600052602060002090601f016020900481019282620000a75760008555620000f3565b82601f10620000c257805160ff1916838001178555620000f3565b82800160010185558215620000f3579182015b82811115620000f2578251825591602001919060010190620000d5565b5b50905062000102919062000106565b5090565b5b808211156200012157600081600090555060010162000107565b5090565b60006200013c620001368462000251565b62000228565b9050828152602081018484840111156200015b576200015a6200038c565b5b6200016884828562000287565b509392505050565b600082601f83011262000188576200018762000387565b5b81516200019a84826020860162000125565b91505092915050565b60008060408385031215620001bd57620001bc62000396565b5b600083015167ffffffffffffffff811115620001de57620001dd62000391565b5b620001ec8582860162000170565b925050602083015167ffffffffffffffff81111562000210576200020f62000391565b5b6200021e8582860162000170565b9150509250929050565b60006200023462000247565b9050620002428282620002f3565b919050565b6000604051905090565b600067ffffffffffffffff8211156200026f576200026e62000358565b5b6200027a826200039b565b9050602081019050919050565b60005b83811015620002a75780820151818401526020810190506200028a565b83811115620002b7576000848401525b50505050565b60006002820490506001821680620002d657607f821691505b60208210811415620002ed57620002ec62000329565b5b50919050565b620002fe826200039b565b810181811067ffffffffffffffff8211171562000320576200031f62000358565b5b80604052505050565b7f4e487b7100000000000000000000000000000000000000000000000000000000600052602260045260246000fd5b7f4e487b7100000000000000000000000000000000000000000000000000000000600052604160045260246000fd5b600080fd5b600080fd5b600080fd5b600080fd5b6000601f19601f8301169050919050565b612f9c80620003bc6000396000f3fe608060405234801561001057600080fd5b506004361061010b5760003560e01c80635658ccb6116100a2578063a22cb46511610071578063a22cb465146102f7578063b16060a614610313578063b88d4fde1461031d578063c87b56dd14610339578063e985e9c5146103695761010b565b80635658ccb6146102425780636352211e1461027957806370a08231146102a957806395d89b41146102d95761010b565b80630a786bfc116100de5780630a786bfc146101aa57806323b872dd146101da57806342842e0e146101f65780634cc124a5146102125761010b565b806301ffc9a71461011057806306fdde0314610140578063081812fc1461015e578063095ea7b31461018e575b600080fd5b61012a60048036038101906101259190611ede565b610399565b60405161013791906124b4565b60405180910390f35b61014861047b565b60405161015591906124cf565b60405180910390f35b610178600480360381019061017391906120f2565b61050d565b604051610185919061244d565b60405180910390f35b6101a860048036038101906101a39190611e9e565b610592565b005b6101c460048036038101906101bf9190611f38565b6106aa565b6040516101d191906124cf565b60405180910390f35b6101f460048036038101906101ef9190611d88565b610777565b005b610210600480360381019061020b9190611d88565b6107d7565b005b61022c60048036038101906102279190611f94565b6107f7565b6040516102399190612719565b60405180910390f35b61025c600480360381019061025791906120f2565b610936565b6040516102709897969594939291906124f1565b60405180910390f35b610293600480360381019061028e91906120f2565b610cae565b6040516102a0919061244d565b60405180910390f35b6102c360048036038101906102be9190611d1b565b610d60565b6040516102d09190612719565b60405180910390f35b6102e1610e18565b6040516102ee91906124cf565b60405180910390f35b610311600480360381019061030c9190611e5e565b610eaa565b005b61031b610ec0565b005b61033760048036038101906103329190611ddb565b610f71565b005b610353600480360381019061034e91906120f2565b610fd3565b60405161036091906124cf565b60405180910390f35b610383600480360381019061037e9190611d48565b61107a565b60405161039091906124b4565b60405180910390f35b60007f80ac58cd000000000000000000000000000000000000000000000000000000007bffffffffffffffffffffffffffffffffffffffffffffffffffffffff1916827bffffffffffffffffffffffffffffffffffffffffffffffffffffffff1916148061046457507f5b5e139f000000000000000000000000000000000000000000000000000000007bffffffffffffffffffffffffffffffffffffffffffffffffffffffff1916827bffffffffffffffffffffffffffffffffffffffffffffffffffffffff1916145b8061047457506104738261110e565b5b9050919050565b60606000805461048a9061298f565b80601f01602080910402602001604051908101604052809291908181526020018280546104b69061298f565b80156105035780601f106104d857610100808354040283529160200191610503565b820191906000526020600020905b8154815290600101906020018083116104e657829003601f168201915b5050505050905090565b600061051882611178565b610557576040517f08c379a000000000000000000000000000000000000000000000000000000000815260040161054e90612699565b60405180910390fd5b6004600083815260200190815260200160002060009054906101000a900473ffffffffffffffffffffffffffffffffffffffff169050919050565b600061059d82610cae565b90508073ffffffffffffffffffffffffffffffffffffffff168373ffffffffffffffffffffffffffffffffffffffff16141561060e576040517f08c379a0000000000000000000000000000000000000000000000000000000008152600401610605906126d9565b60405180910390fd5b8073ffffffffffffffffffffffffffffffffffffffff1661062d6111e4565b73ffffffffffffffffffffffffffffffffffffffff16148061065c575061065b816106566111e4565b61107a565b5b61069b576040517f08c379a000000000000000000000000000000000000000000000000000000000815260040161069290612639565b60405180910390fd5b6106a583836111ec565b505050565b606060005b60065481101561073757600760008281526020019081526020016000206000016040516106dc9190612412565b6040518091039020848051906020012014801561070e5750600760008281526020019081526020016000206001015483145b156107245761071c816112a5565b915050610771565b808061072f906129f2565b9150506106af565b506040518060400160405280600581526020017f66616c736500000000000000000000000000000000000000000000000000000081525090505b92915050565b6107886107826111e4565b82611406565b6107c7576040517f08c379a00000000000000000000000000000000000000000000000000000000081526004016107be906126f9565b60405180910390fd5b6107d28383836114e4565b505050565b6107f283838360405180602001604052806000815250610f71565b505050565b60006040518061010001604052808a8152602001898152602001888152602001878152602001868152602001858152602001848152602001838152506007600060065481526020019081526020016000206000820151816000019080519060200190610864929190611aef565b5060208201518160010155604082015181600201556060820151816003019080519060200190610895929190611aef565b5060808201518160040190805190602001906108b2929190611aef565b5060a08201518160050190805190602001906108cf929190611aef565b5060c08201518160060190805190602001906108ec929190611aef565b5060e0820151816007019080519060200190610909929190611aef565b5090505060066000815480929190610920906129f2565b9190505550600654905098975050505050505050565b60076020528060005260406000206000915090508060000180546109599061298f565b80601f01602080910402602001604051908101604052809291908181526020018280546109859061298f565b80156109d25780601f106109a7576101008083540402835291602001916109d2565b820191906000526020600020905b8154815290600101906020018083116109b557829003601f168201915b5050505050908060010154908060020154908060030180546109f39061298f565b80601f0160208091040260200160405190810160405280929190818152602001828054610a1f9061298f565b8015610a6c5780601f10610a4157610100808354040283529160200191610a6c565b820191906000526020600020905b815481529060010190602001808311610a4f57829003601f168201915b505050505090806004018054610a819061298f565b80601f0160208091040260200160405190810160405280929190818152602001828054610aad9061298f565b8015610afa5780601f10610acf57610100808354040283529160200191610afa565b820191906000526020600020905b815481529060010190602001808311610add57829003601f168201915b505050505090806005018054610b0f9061298f565b80601f0160208091040260200160405190810160405280929190818152602001828054610b3b9061298f565b8015610b885780601f10610b5d57610100808354040283529160200191610b88565b820191906000526020600020905b815481529060010190602001808311610b6b57829003601f168201915b505050505090806006018054610b9d9061298f565b80601f0160208091040260200160405190810160405280929190818152602001828054610bc99061298f565b8015610c165780601f10610beb57610100808354040283529160200191610c16565b820191906000526020600020905b815481529060010190602001808311610bf957829003601f168201915b505050505090806007018054610c2b9061298f565b80601f0160208091040260200160405190810160405280929190818152602001828054610c579061298f565b8015610ca45780601f10610c7957610100808354040283529160200191610ca4565b820191906000526020600020905b815481529060010190602001808311610c8757829003601f168201915b5050505050905088565b6000806002600084815260200190815260200160002060009054906101000a900473ffffffffffffffffffffffffffffffffffffffff169050600073ffffffffffffffffffffffffffffffffffffffff168173ffffffffffffffffffffffffffffffffffffffff161415610d57576040517f08c379a0000000000000000000000000000000000000000000000000000000008152600401610d4e90612679565b60405180910390fd5b80915050919050565b60008073ffffffffffffffffffffffffffffffffffffffff168273ffffffffffffffffffffffffffffffffffffffff161415610dd1576040517f08c379a0000000000000000000000000000000000000000000000000000000008152600401610dc890612659565b60405180910390fd5b600360008373ffffffffffffffffffffffffffffffffffffffff1673ffffffffffffffffffffffffffffffffffffffff168152602001908152602001600020549050919050565b606060018054610e279061298f565b80601f0160208091040260200160405190810160405280929190818152602001828054610e539061298f565b8015610ea05780601f10610e7557610100808354040283529160200191610ea0565b820191906000526020600020905b815481529060010190602001808311610e8357829003601f168201915b5050505050905090565b610ebc610eb56111e4565b838361174b565b5050565b600060068190555060005b600654811015610f6e576007600082815260200190815260200160002060008082016000610ef99190611b75565b60018201600090556002820160009055600382016000610f199190611b75565b600482016000610f299190611b75565b600582016000610f399190611b75565b600682016000610f499190611b75565b600782016000610f599190611b75565b50508080610f66906129f2565b915050610ecb565b50565b610f82610f7c6111e4565b83611406565b610fc1576040517f08c379a0000000000000000000000000000000000000000000000000000000008152600401610fb8906126f9565b60405180910390fd5b610fcd848484846118b8565b50505050565b6060610fde82611178565b61101d576040517f08c379a0000000000000000000000000000000000000000000000000000000008152600401611014906126b9565b60405180910390fd5b6000611027611914565b905060008151116110475760405180602001604052806000815250611072565b80611051846112a5565b604051602001611062929190612429565b6040516020818303038152906040525b915050919050565b6000600560008473ffffffffffffffffffffffffffffffffffffffff1673ffffffffffffffffffffffffffffffffffffffff16815260200190815260200160002060008373ffffffffffffffffffffffffffffffffffffffff1673ffffffffffffffffffffffffffffffffffffffff16815260200190815260200160002060009054906101000a900460ff16905092915050565b60007f01ffc9a7000000000000000000000000000000000000000000000000000000007bffffffffffffffffffffffffffffffffffffffffffffffffffffffff1916827bffffffffffffffffffffffffffffffffffffffffffffffffffffffff1916149050919050565b60008073ffffffffffffffffffffffffffffffffffffffff166002600084815260200190815260200160002060009054906101000a900473ffffffffffffffffffffffffffffffffffffffff1673ffffffffffffffffffffffffffffffffffffffff1614159050919050565b600033905090565b816004600083815260200190815260200160002060006101000a81548173ffffffffffffffffffffffffffffffffffffffff021916908373ffffffffffffffffffffffffffffffffffffffff160217905550808273ffffffffffffffffffffffffffffffffffffffff1661125f83610cae565b73ffffffffffffffffffffffffffffffffffffffff167f8c5be1e5ebec7d5bd14f71427d1e84f3dd0314c0f7b2291e5b200ac8c7c3b92560405160405180910390a45050565b606060008214156112ed576040518060400160405280600181526020017f30000000000000000000000000000000000000000000000000000000000000008152509050611401565b600082905060005b6000821461131f578080611308906129f2565b915050600a826113189190612874565b91506112f5565b60008167ffffffffffffffff81111561133b5761133a612b28565b5b6040519080825280601f01601f19166020018201604052801561136d5781602001600182028036833780820191505090505b5090505b600085146113fa5760018261138691906128a5565b9150600a856113959190612a3b565b60306113a1919061281e565b60f81b8183815181106113b7576113b6612af9565b5b60200101907effffffffffffffffffffffffffffffffffffffffffffffffffffffffffffff1916908160001a905350600a856113f39190612874565b9450611371565b8093505050505b919050565b600061141182611178565b611450576040517f08c379a000000000000000000000000000000000000000000000000000000000815260040161144790612619565b60405180910390fd5b600061145b83610cae565b90508073ffffffffffffffffffffffffffffffffffffffff168473ffffffffffffffffffffffffffffffffffffffff16148061149d575061149c818561107a565b5b806114db57508373ffffffffffffffffffffffffffffffffffffffff166114c38461050d565b73ffffffffffffffffffffffffffffffffffffffff16145b91505092915050565b8273ffffffffffffffffffffffffffffffffffffffff1661150482610cae565b73ffffffffffffffffffffffffffffffffffffffff161461155a576040517f08c379a0000000000000000000000000000000000000000000000000000000008152600401611551906125b9565b60405180910390fd5b600073ffffffffffffffffffffffffffffffffffffffff168273ffffffffffffffffffffffffffffffffffffffff1614156115ca576040517f08c379a00000000000000000000000000000000000000000000000000000000081526004016115c1906125d9565b60405180910390fd5b6115d583838361192b565b6115e06000826111ec565b6001600360008573ffffffffffffffffffffffffffffffffffffffff1673ffffffffffffffffffffffffffffffffffffffff168152602001908152602001600020600082825461163091906128a5565b925050819055506001600360008473ffffffffffffffffffffffffffffffffffffffff1673ffffffffffffffffffffffffffffffffffffffff1681526020019081526020016000206000828254611687919061281e565b92505081905550816002600083815260200190815260200160002060006101000a81548173ffffffffffffffffffffffffffffffffffffffff021916908373ffffffffffffffffffffffffffffffffffffffff160217905550808273ffffffffffffffffffffffffffffffffffffffff168473ffffffffffffffffffffffffffffffffffffffff167fddf252ad1be2c89b69c2b068fc378daa952ba7f163c4a11628f55a4df523b3ef60405160405180910390a4611746838383611930565b505050565b8173ffffffffffffffffffffffffffffffffffffffff168373ffffffffffffffffffffffffffffffffffffffff1614156117ba576040517f08c379a00000000000000000000000000000000000000000000000000000000081526004016117b1906125f9565b60405180910390fd5b80600560008573ffffffffffffffffffffffffffffffffffffffff1673ffffffffffffffffffffffffffffffffffffffff16815260200190815260200160002060008473ffffffffffffffffffffffffffffffffffffffff1673ffffffffffffffffffffffffffffffffffffffff16815260200190815260200160002060006101000a81548160ff0219169083151502179055508173ffffffffffffffffffffffffffffffffffffffff168373ffffffffffffffffffffffffffffffffffffffff167f17307eab39ab6107e8899845ad3d59bd9653f200f220920489ca2b5937696c31836040516118ab91906124b4565b60405180910390a3505050565b6118c38484846114e4565b6118cf84848484611935565b61190e576040517f08c379a000000000000000000000000000000000000000000000000000000000815260040161190590612599565b60405180910390fd5b50505050565b606060405180602001604052806000815250905090565b505050565b505050565b60006119568473ffffffffffffffffffffffffffffffffffffffff16611acc565b15611abf578373ffffffffffffffffffffffffffffffffffffffff1663150b7a0261197f6111e4565b8786866040518563ffffffff1660e01b81526004016119a19493929190612468565b602060405180830381600087803b1580156119bb57600080fd5b505af19250505080156119ec57506040513d601f19601f820116820180604052508101906119e99190611f0b565b60015b611a6f573d8060008114611a1c576040519150601f19603f3d011682016040523d82523d6000602084013e611a21565b606091505b50600081511415611a67576040517f08c379a0000000000000000000000000000000000000000000000000000000008152600401611a5e90612599565b60405180910390fd5b805181602001fd5b63150b7a0260e01b7bffffffffffffffffffffffffffffffffffffffffffffffffffffffff1916817bffffffffffffffffffffffffffffffffffffffffffffffffffffffff191614915050611ac4565b600190505b949350505050565b6000808273ffffffffffffffffffffffffffffffffffffffff163b119050919050565b828054611afb9061298f565b90600052602060002090601f016020900481019282611b1d5760008555611b64565b82601f10611b3657805160ff1916838001178555611b64565b82800160010185558215611b64579182015b82811115611b63578251825591602001919060010190611b48565b5b509050611b719190611bb5565b5090565b508054611b819061298f565b6000825580601f10611b935750611bb2565b601f016020900490600052602060002090810190611bb19190611bb5565b5b50565b5b80821115611bce576000816000905550600101611bb6565b5090565b6000611be5611be084612759565b612734565b905082815260208101848484011115611c0157611c00612b5c565b5b611c0c84828561294d565b509392505050565b6000611c27611c228461278a565b612734565b905082815260208101848484011115611c4357611c42612b5c565b5b611c4e84828561294d565b509392505050565b600081359050611c6581612f0a565b92915050565b600081359050611c7a81612f21565b92915050565b600081359050611c8f81612f38565b92915050565b600081519050611ca481612f38565b92915050565b600082601f830112611cbf57611cbe612b57565b5b8135611ccf848260208601611bd2565b91505092915050565b600082601f830112611ced57611cec612b57565b5b8135611cfd848260208601611c14565b91505092915050565b600081359050611d1581612f4f565b92915050565b600060208284031215611d3157611d30612b66565b5b6000611d3f84828501611c56565b91505092915050565b60008060408385031215611d5f57611d5e612b66565b5b6000611d6d85828601611c56565b9250506020611d7e85828601611c56565b9150509250929050565b600080600060608486031215611da157611da0612b66565b5b6000611daf86828701611c56565b9350506020611dc086828701611c56565b9250506040611dd186828701611d06565b9150509250925092565b60008060008060808587031215611df557611df4612b66565b5b6000611e0387828801611c56565b9450506020611e1487828801611c56565b9350506040611e2587828801611d06565b925050606085013567ffffffffffffffff811115611e4657611e45612b61565b5b611e5287828801611caa565b91505092959194509250565b60008060408385031215611e7557611e74612b66565b5b6000611e8385828601611c56565b9250506020611e9485828601611c6b565b9150509250929050565b60008060408385031215611eb557611eb4612b66565b5b6000611ec385828601611c56565b9250506020611ed485828601611d06565b9150509250929050565b600060208284031215611ef457611ef3612b66565b5b6000611f0284828501611c80565b91505092915050565b600060208284031215611f2157611f20612b66565b5b6000611f2f84828501611c95565b91505092915050565b60008060408385031215611f4f57611f4e612b66565b5b600083013567ffffffffffffffff811115611f6d57611f6c612b61565b5b611f7985828601611cd8565b9250506020611f8a85828601611d06565b9150509250929050565b600080600080600080600080610100898b031215611fb557611fb4612b66565b5b600089013567ffffffffffffffff811115611fd357611fd2612b61565b5b611fdf8b828c01611cd8565b9850506020611ff08b828c01611d06565b97505060406120018b828c01611d06565b965050606089013567ffffffffffffffff81111561202257612021612b61565b5b61202e8b828c01611cd8565b955050608089013567ffffffffffffffff81111561204f5761204e612b61565b5b61205b8b828c01611cd8565b94505060a089013567ffffffffffffffff81111561207c5761207b612b61565b5b6120888b828c01611cd8565b93505060c089013567ffffffffffffffff8111156120a9576120a8612b61565b5b6120b58b828c01611cd8565b92505060e089013567ffffffffffffffff8111156120d6576120d5612b61565b5b6120e28b828c01611cd8565b9150509295985092959890939650565b60006020828403121561210857612107612b66565b5b600061211684828501611d06565b91505092915050565b612128816128d9565b82525050565b612137816128eb565b82525050565b6000612148826127d0565b61215281856127e6565b935061216281856020860161295c565b61216b81612b6b565b840191505092915050565b600081546121838161298f565b61218d81866127f7565b945060018216600081146121a857600181146121b9576121ec565b60ff198316865281860193506121ec565b6121c2856127bb565b60005b838110156121e4578154818901526001820191506020810190506121c5565b838801955050505b50505092915050565b6000612200826127db565b61220a8185612802565b935061221a81856020860161295c565b61222381612b6b565b840191505092915050565b6000612239826127db565b6122438185612813565b935061225381856020860161295c565b80840191505092915050565b600061226c603283612802565b915061227782612b7c565b604082019050919050565b600061228f602583612802565b915061229a82612bcb565b604082019050919050565b60006122b2602483612802565b91506122bd82612c1a565b604082019050919050565b60006122d5601983612802565b91506122e082612c69565b602082019050919050565b60006122f8602c83612802565b915061230382612c92565b604082019050919050565b600061231b603883612802565b915061232682612ce1565b604082019050919050565b600061233e602a83612802565b915061234982612d30565b604082019050919050565b6000612361602983612802565b915061236c82612d7f565b604082019050919050565b6000612384602c83612802565b915061238f82612dce565b604082019050919050565b60006123a7602f83612802565b91506123b282612e1d565b604082019050919050565b60006123ca602183612802565b91506123d582612e6c565b604082019050919050565b60006123ed603183612802565b91506123f882612ebb565b604082019050919050565b61240c81612943565b82525050565b600061241e8284612176565b915081905092915050565b6000612435828561222e565b9150612441828461222e565b91508190509392505050565b6000602082019050612462600083018461211f565b92915050565b600060808201905061247d600083018761211f565b61248a602083018661211f565b6124976040830185612403565b81810360608301526124a9818461213d565b905095945050505050565b60006020820190506124c9600083018461212e565b92915050565b600060208201905081810360008301526124e981846121f5565b905092915050565b600061010082019050818103600083015261250c818b6121f5565b905061251b602083018a612403565b6125286040830189612403565b818103606083015261253a81886121f5565b9050818103608083015261254e81876121f5565b905081810360a083015261256281866121f5565b905081810360c083015261257681856121f5565b905081810360e083015261258a81846121f5565b90509998505050505050505050565b600060208201905081810360008301526125b28161225f565b9050919050565b600060208201905081810360008301526125d281612282565b9050919050565b600060208201905081810360008301526125f2816122a5565b9050919050565b60006020820190508181036000830152612612816122c8565b9050919050565b60006020820190508181036000830152612632816122eb565b9050919050565b600060208201905081810360008301526126528161230e565b9050919050565b6000602082019050818103600083015261267281612331565b9050919050565b6000602082019050818103600083015261269281612354565b9050919050565b600060208201905081810360008301526126b281612377565b9050919050565b600060208201905081810360008301526126d28161239a565b9050919050565b600060208201905081810360008301526126f2816123bd565b9050919050565b60006020820190508181036000830152612712816123e0565b9050919050565b600060208201905061272e6000830184612403565b92915050565b600061273e61274f565b905061274a82826129c1565b919050565b6000604051905090565b600067ffffffffffffffff82111561277457612773612b28565b5b61277d82612b6b565b9050602081019050919050565b600067ffffffffffffffff8211156127a5576127a4612b28565b5b6127ae82612b6b565b9050602081019050919050565b60008190508160005260206000209050919050565b600081519050919050565b600081519050919050565b600082825260208201905092915050565b600081905092915050565b600082825260208201905092915050565b600081905092915050565b600061282982612943565b915061283483612943565b9250827fffffffffffffffffffffffffffffffffffffffffffffffffffffffffffffffff0382111561286957612868612a6c565b5b828201905092915050565b600061287f82612943565b915061288a83612943565b92508261289a57612899612a9b565b5b828204905092915050565b60006128b082612943565b91506128bb83612943565b9250828210156128ce576128cd612a6c565b5b828203905092915050565b60006128e482612923565b9050919050565b60008115159050919050565b60007fffffffff0000000000000000000000000000000000000000000000000000000082169050919050565b600073ffffffffffffffffffffffffffffffffffffffff82169050919050565b6000819050919050565b82818337600083830152505050565b60005b8381101561297a57808201518184015260208101905061295f565b83811115612989576000848401525b50505050565b600060028204905060018216806129a757607f821691505b602082108114156129bb576129ba612aca565b5b50919050565b6129ca82612b6b565b810181811067ffffffffffffffff821117156129e9576129e8612b28565b5b80604052505050565b60006129fd82612943565b91507fffffffffffffffffffffffffffffffffffffffffffffffffffffffffffffffff821415612a3057612a2f612a6c565b5b600182019050919050565b6000612a4682612943565b9150612a5183612943565b925082612a6157612a60612a9b565b5b828206905092915050565b7f4e487b7100000000000000000000000000000000000000000000000000000000600052601160045260246000fd5b7f4e487b7100000000000000000000000000000000000000000000000000000000600052601260045260246000fd5b7f4e487b7100000000000000000000000000000000000000000000000000000000600052602260045260246000fd5b7f4e487b7100000000000000000000000000000000000000000000000000000000600052603260045260246000fd5b7f4e487b7100000000000000000000000000000000000000000000000000000000600052604160045260246000fd5b600080fd5b600080fd5b600080fd5b600080fd5b6000601f19601f8301169050919050565b7f4552433732313a207472616e7366657220746f206e6f6e20455243373231526560008201527f63656976657220696d706c656d656e7465720000000000000000000000000000602082015250565b7f4552433732313a207472616e736665722066726f6d20696e636f72726563742060008201527f6f776e6572000000000000000000000000000000000000000000000000000000602082015250565b7f4552433732313a207472616e7366657220746f20746865207a65726f2061646460008201527f7265737300000000000000000000000000000000000000000000000000000000602082015250565b7f4552433732313a20617070726f766520746f2063616c6c657200000000000000600082015250565b7f4552433732313a206f70657261746f7220717565727920666f72206e6f6e657860008201527f697374656e7420746f6b656e0000000000000000000000000000000000000000602082015250565b7f4552433732313a20617070726f76652063616c6c6572206973206e6f74206f7760008201527f6e6572206e6f7220617070726f76656420666f7220616c6c0000000000000000602082015250565b7f4552433732313a2062616c616e636520717565727920666f7220746865207a6560008201527f726f206164647265737300000000000000000000000000000000000000000000602082015250565b7f4552433732313a206f776e657220717565727920666f72206e6f6e657869737460008201527f656e7420746f6b656e0000000000000000000000000000000000000000000000602082015250565b7f4552433732313a20617070726f76656420717565727920666f72206e6f6e657860008201527f697374656e7420746f6b656e0000000000000000000000000000000000000000602082015250565b7f4552433732314d657461646174613a2055524920717565727920666f72206e6f60008201527f6e6578697374656e7420746f6b656e0000000000000000000000000000000000602082015250565b7f4552433732313a20617070726f76616c20746f2063757272656e74206f776e6560008201527f7200000000000000000000000000000000000000000000000000000000000000602082015250565b7f4552433732313a207472616e736665722063616c6c6572206973206e6f74206f60008201527f776e6572206e6f7220617070726f766564000000000000000000000000000000602082015250565b612f13816128d9565b8114612f1e57600080fd5b50565b612f2a816128eb565b8114612f3557600080fd5b50565b612f41816128f7565b8114612f4c57600080fd5b50565b612f5881612943565b8114612f6357600080fd5b5056fea264697066735822122062a01bf3d9f3413c763020c2705b9d617a62cc60f11d62200f54c34837c4fa8464736f6c63430008060033",
  "linkReferences": {},
  "deployedLinkReferences": {}
}