{
  "_format": "hh-sol-artifact-1",
  "contractName": "CeloERC721",
  "sourceName": "contracts/CeloERC721.sol",
  "abi": [
    {
      "inputs": [
        {
          "internalType": "string",
          "name": "name",
          "type": "string"
        },
        {
          "internalType": "string",
          "name": "symbol",
          "type": "string"
        }
      ],
      "stateMutability": "nonpayable",
      "type": "constructor"
    },
    {
      "anonymous": false,
      "inputs": [
        {
          "indexed": true,
          "internalType": "address",
          "name": "owner",
          "type": "address"
        },
        {
          "indexed": true,
          "internalType": "address",
          "name": "approved",
          "type": "address"
        },
        {
          "indexed": true,
          "internalType": "uint256",
          "name": "tokenId",
          "type": "uint256"
        }
      ],
      "name": "Approval",
      "type": "event"
    },
    {
      "anonymous": false,
      "inputs": [
        {
          "indexed": true,
          "internalType": "address",
          "name": "owner",
          "type": "address"
        },
        {
          "indexed": true,
          "internalType": "address",
          "name": "operator",
          "type": "address"
        },
        {
          "indexed": false,
          "internalType": "bool",
          "name": "approved",
          "type": "bool"
        }
      ],
      "name": "ApprovalForAll",
      "type": "event"
    },
    {
      "anonymous": false,
      "inputs": [
        {
          "indexed": true,
          "internalType": "address",
          "name": "from",
          "type": "address"
        },
        {
          "indexed": true,
          "internalType": "address",
          "name": "to",
          "type": "address"
        },
        {
          "indexed": true,
          "internalType": "uint256",
          "name": "tokenId",
          "type": "uint256"
        }
      ],
      "name": "Transfer",
      "type": "event"
    },
    {
      "inputs": [],
      "name": "_certificate_ids",
      "outputs": [
        {
          "internalType": "uint256",
          "name": "",
          "type": "uint256"
        }
      ],
      "stateMutability": "view",
      "type": "function"
    },
    {
      "inputs": [
        {
          "internalType": "uint256",
          "name": "",
          "type": "uint256"
        }
      ],
      "name": "_certificate_uris",
      "outputs": [
        {
          "internalType": "string",
          "name": "wallet",
          "type": "string"
        },
        {
          "internalType": "string",
          "name": "number",
          "type": "string"
        },
        {
          "internalType": "uint256",
          "name": "price",
          "type": "uint256"
        },
        {
          "internalType": "string",
          "name": "location",
          "type": "string"
        },
        {
          "internalType": "string",
          "name": "description",
          "type": "string"
        },
        {
          "internalType": "string",
          "name": "collection",
          "type": "string"
        },
        {
          "internalType": "string",
          "name": "date",
          "type": "string"
        },
        {
          "internalType": "string",
          "name": "image",
          "type": "string"
        }
      ],
      "stateMutability": "view",
      "type": "function"
    },
    {
      "inputs": [
        {
          "internalType": "address",
          "name": "to",
          "type": "address"
        },
        {
          "internalType": "uint256",
          "name": "tokenId",
          "type": "uint256"
        }
      ],
      "name": "approve",
      "outputs": [],
      "stateMutability": "nonpayable",
      "type": "function"
    },
    {
      "inputs": [
        {
          "internalType": "address",
          "name": "owner",
          "type": "address"
        }
      ],
      "name": "balanceOf",
      "outputs": [
        {
          "internalType": "uint256",
          "name": "",
          "type": "uint256"
        }
      ],
      "stateMutability": "view",
      "type": "function"
    },
    {
      "inputs": [
        {
          "internalType": "string",
          "name": "_claimer",
          "type": "string"
        },
        {
          "internalType": "string",
          "name": "number",
          "type": "string"
        },
        {
          "internalType": "uint256",
          "name": "price",
          "type": "uint256"
        },
        {
          "internalType": "string",
          "name": "location",
          "type": "string"
        },
        {
          "internalType": "string",
          "name": "description",
          "type": "string"
        },
        {
          "internalType": "string",
          "name": "collection",
          "type": "string"
        },
        {
          "internalType": "string",
          "name": "date",
          "type": "string"
        },
        {
          "internalType": "string",
          "name": "image",
          "type": "string"
        }
      ],
      "name": "create_certificate",
      "outputs": [
        {
          "internalType": "uint256",
          "name": "",
          "type": "uint256"
        }
      ],
      "stateMutability": "nonpayable",
      "type": "function"
    },
    {
      "inputs": [
        {
          "internalType": "uint256",
          "name": "tokenId",
          "type": "uint256"
        }
      ],
      "name": "getApproved",
      "outputs": [
        {
          "internalType": "address",
          "name": "",
          "type": "address"
        }
      ],
      "stateMutability": "view",
      "type": "function"
    },
    {
      "inputs": [
        {
          "internalType": "address",
          "name": "owner",
          "type": "address"
        },
        {
          "internalType": "address",
          "name": "operator",
          "type": "address"
        }
      ],
      "name": "isApprovedForAll",
      "outputs": [
        {
          "internalType": "bool",
          "name": "",
          "type": "bool"
        }
      ],
      "stateMutability": "view",
      "type": "function"
    },
    {
      "inputs": [],
      "name": "name",
      "outputs": [
        {
          "internalType": "string",
          "name": "",
          "type": "string"
        }
      ],
      "stateMutability": "view",
      "type": "function"
    },
    {
      "inputs": [
        {
          "internalType": "uint256",
          "name": "tokenId",
          "type": "uint256"
        }
      ],
      "name": "ownerOf",
      "outputs": [
        {
          "internalType": "address",
          "name": "",
          "type": "address"
        }
      ],
      "stateMutability": "view",
      "type": "function"
    },
    {
      "inputs": [],
      "name": "reset_all",
      "outputs": [],
      "stateMutability": "nonpayable",
      "type": "function"
    },
    {
      "inputs": [
        {
          "internalType": "address",
          "name": "from",
          "type": "address"
        },
        {
          "internalType": "address",
          "name": "to",
          "type": "address"
        },
        {
          "internalType": "uint256",
          "name": "tokenId",
          "type": "uint256"
        }
      ],
      "name": "safeTransferFrom",
      "outputs": [],
      "stateMutability": "nonpayable",
      "type": "function"
    },
    {
      "inputs": [
        {
          "internalType": "address",
          "name": "from",
          "type": "address"
        },
        {
          "internalType": "address",
          "name": "to",
          "type": "address"
        },
        {
          "internalType": "uint256",
          "name": "tokenId",
          "type": "uint256"
        },
        {
          "internalType": "bytes",
          "name": "_data",
          "type": "bytes"
        }
      ],
      "name": "safeTransferFrom",
      "outputs": [],
      "stateMutability": "nonpayable",
      "type": "function"
    },
    {
      "inputs": [
        {
          "internalType": "address",
          "name": "operator",
          "type": "address"
        },
        {
          "internalType": "bool",
          "name": "approved",
          "type": "bool"
        }
      ],
      "name": "setApprovalForAll",
      "outputs": [],
      "stateMutability": "nonpayable",
      "type": "function"
    },
    {
      "inputs": [
        {
          "internalType": "bytes4",
          "name": "interfaceId",
          "type": "bytes4"
        }
      ],
      "name": "supportsInterface",
      "outputs": [
        {
          "internalType": "bool",
          "name": "",
          "type": "bool"
        }
      ],
      "stateMutability": "view",
      "type": "function"
    },
    {
      "inputs": [],
      "name": "symbol",
      "outputs": [
        {
          "internalType": "string",
          "name": "",
          "type": "string"
        }
      ],
      "stateMutability": "view",
      "type": "function"
    },
    {
      "inputs": [],
      "name": "testing",
      "outputs": [
        {
          "internalType": "string",
          "name": "",
          "type": "string"
        }
      ],
      "stateMutability": "nonpayable",
      "type": "function"
    },
    {
      "inputs": [
        {
          "internalType": "uint256",
          "name": "tokenId",
          "type": "uint256"
        }
      ],
      "name": "tokenURI",
      "outputs": [
        {
          "internalType": "string",
          "name": "",
          "type": "string"
        }
      ],
      "stateMutability": "view",
      "type": "function"
    },
    {
      "inputs": [
        {
          "internalType": "address",
          "name": "from",
          "type": "address"
        },
        {
          "internalType": "address",
          "name": "to",
          "type": "address"
        },
        {
          "internalType": "uint256",
          "name": "tokenId",
          "type": "uint256"
        }
      ],
      "name": "transferFrom",
      "outputs": [],
      "stateMutability": "nonpayable",
      "type": "function"
    },
    {
      "inputs": [
        {
          "internalType": "string",
          "name": "_claimer",
          "type": "string"
        },
        {
          "internalType": "string",
          "name": "number",
          "type": "string"
        }
      ],
      "name": "validate_certificate",
      "outputs": [
        {
          "internalType": "string",
          "name": "",
          "type": "string"
        }
      ],
      "stateMutability": "view",
      "type": "function"
    }
  ],
  "bytecode": "0x60806040523480156200001157600080fd5b50604051620036c6380380620036c68339818101604052810190620000379190620001a3565b818181600090805190602001906200005192919062000075565b5080600190805190602001906200006a92919062000075565b5050505050620003ac565b8280546200008390620002bd565b90600052602060002090601f016020900481019282620000a75760008555620000f3565b82601f10620000c257805160ff1916838001178555620000f3565b82800160010185558215620000f3579182015b82811115620000f2578251825591602001919060010190620000d5565b5b50905062000102919062000106565b5090565b5b808211156200012157600081600090555060010162000107565b5090565b60006200013c620001368462000251565b62000228565b9050828152602081018484840111156200015b576200015a6200038c565b5b6200016884828562000287565b509392505050565b600082601f83011262000188576200018762000387565b5b81516200019a84826020860162000125565b91505092915050565b60008060408385031215620001bd57620001bc62000396565b5b600083015167ffffffffffffffff811115620001de57620001dd62000391565b5b620001ec8582860162000170565b925050602083015167ffffffffffffffff81111562000210576200020f62000391565b5b6200021e8582860162000170565b9150509250929050565b60006200023462000247565b9050620002428282620002f3565b919050565b6000604051905090565b600067ffffffffffffffff8211156200026f576200026e62000358565b5b6200027a826200039b565b9050602081019050919050565b60005b83811015620002a75780820151818401526020810190506200028a565b83811115620002b7576000848401525b50505050565b60006002820490506001821680620002d657607f821691505b60208210811415620002ed57620002ec62000329565b5b50919050565b620002fe826200039b565b810181811067ffffffffffffffff8211171562000320576200031f62000358565b5b80604052505050565b7f4e487b7100000000000000000000000000000000000000000000000000000000600052602260045260246000fd5b7f4e487b7100000000000000000000000000000000000000000000000000000000600052604160045260246000fd5b600080fd5b600080fd5b600080fd5b600080fd5b6000601f19601f8301169050919050565b61330a80620003bc6000396000f3fe608060405234801561001057600080fd5b50600436106101215760003560e01c80636352211e116100ad578063a22cb46511610071578063a22cb46514610349578063b16060a614610365578063b88d4fde1461036f578063c87b56dd1461038b578063e985e9c5146103bb57610121565b80636352211e1461028f57806370a08231146102bf5780638d03b102146102ef5780638e26c0871461030d57806395d89b411461032b57610121565b806313e4cfaf116100f457806313e4cfaf146101c05780631b860d75146101f057806323b872dd1461022057806342842e0e1461023c5780635658ccb61461025857610121565b806301ffc9a71461012657806306fdde0314610156578063081812fc14610174578063095ea7b3146101a4575b600080fd5b610140600480360381019061013b919061219e565b6103eb565b60405161014d91906127ac565b60405180910390f35b61015e6104cd565b60405161016b91906127c7565b60405180910390f35b61018e600480360381019061018991906123ea565b61055f565b60405161019b9190612745565b60405180910390f35b6101be60048036038101906101b9919061215e565b6105e4565b005b6101da60048036038101906101d59190612270565b6106fc565b6040516101e79190612a18565b60405180910390f35b61020a600480360381019061020591906121f8565b61084e565b60405161021791906127c7565b60405180910390f35b61023a60048036038101906102359190612048565b610936565b005b61025660048036038101906102519190612048565b610996565b005b610272600480360381019061026d91906123ea565b6109b6565b6040516102869897969594939291906127e9565b60405180910390f35b6102a960048036038101906102a491906123ea565b610db6565b6040516102b69190612745565b60405180910390f35b6102d960048036038101906102d49190611fdb565b610e68565b6040516102e69190612a18565b60405180910390f35b6102f7610f20565b60405161030491906127c7565b60405180910390f35b6103156110ca565b6040516103229190612a18565b60405180910390f35b6103336110d0565b60405161034091906127c7565b60405180910390f35b610363600480360381019061035e919061211e565b611162565b005b61036d611178565b005b6103896004803603810190610384919061209b565b611231565b005b6103a560048036038101906103a091906123ea565b611293565b6040516103b291906127c7565b60405180910390f35b6103d560048036038101906103d09190612008565b61133a565b6040516103e291906127ac565b60405180910390f35b60007f80ac58cd000000000000000000000000000000000000000000000000000000007bffffffffffffffffffffffffffffffffffffffffffffffffffffffff1916827bffffffffffffffffffffffffffffffffffffffffffffffffffffffff191614806104b657507f5b5e139f000000000000000000000000000000000000000000000000000000007bffffffffffffffffffffffffffffffffffffffffffffffffffffffff1916827bffffffffffffffffffffffffffffffffffffffffffffffffffffffff1916145b806104c657506104c5826113ce565b5b9050919050565b6060600080546104dc90612c8e565b80601f016020809104026020016040519081016040528092919081815260200182805461050890612c8e565b80156105555780601f1061052a57610100808354040283529160200191610555565b820191906000526020600020905b81548152906001019060200180831161053857829003601f168201915b5050505050905090565b600061056a82611438565b6105a9576040517f08c379a00000000000000000000000000000000000000000000000000000000081526004016105a090612998565b60405180910390fd5b6004600083815260200190815260200160002060009054906101000a900473ffffffffffffffffffffffffffffffffffffffff169050919050565b60006105ef82610db6565b90508073ffffffffffffffffffffffffffffffffffffffff168373ffffffffffffffffffffffffffffffffffffffff161415610660576040517f08c379a0000000000000000000000000000000000000000000000000000000008152600401610657906129d8565b60405180910390fd5b8073ffffffffffffffffffffffffffffffffffffffff1661067f6114a4565b73ffffffffffffffffffffffffffffffffffffffff1614806106ae57506106ad816106a86114a4565b61133a565b5b6106ed576040517f08c379a00000000000000000000000000000000000000000000000000000000081526004016106e490612938565b60405180910390fd5b6106f783836114ac565b505050565b60006040518061010001604052808a8152602001898152602001888152602001878152602001868152602001858152602001848152602001838152506007600060065481526020019081526020016000206000820151816000019080519060200190610769929190611daf565b506020820151816001019080519060200190610786929190611daf565b506040820151816002015560608201518160030190805190602001906107ad929190611daf565b5060808201518160040190805190602001906107ca929190611daf565b5060a08201518160050190805190602001906107e7929190611daf565b5060c0820151816006019080519060200190610804929190611daf565b5060e0820151816007019080519060200190610821929190611daf565b509050506006600081548092919061083890612cf1565b9190505550600654905098975050505050505050565b606060005b6006548110156108f65760076000828152602001908152602001600020600001604051610880919061270a565b604051809103902084805190602001201480156108cd5750600760008281526020019081526020016000206001016040516108bb919061270a565b60405180910390208380519060200120145b156108e3576108db81611565565b915050610930565b80806108ee90612cf1565b915050610853565b506040518060400160405280600581526020017f66616c736500000000000000000000000000000000000000000000000000000081525090505b92915050565b6109476109416114a4565b826116c6565b610986576040517f08c379a000000000000000000000000000000000000000000000000000000000815260040161097d906129f8565b60405180910390fd5b6109918383836117a4565b505050565b6109b183838360405180602001604052806000815250611231565b505050565b60076020528060005260406000206000915090508060000180546109d990612c8e565b80601f0160208091040260200160405190810160405280929190818152602001828054610a0590612c8e565b8015610a525780601f10610a2757610100808354040283529160200191610a52565b820191906000526020600020905b815481529060010190602001808311610a3557829003601f168201915b505050505090806001018054610a6790612c8e565b80601f0160208091040260200160405190810160405280929190818152602001828054610a9390612c8e565b8015610ae05780601f10610ab557610100808354040283529160200191610ae0565b820191906000526020600020905b815481529060010190602001808311610ac357829003601f168201915b505050505090806002015490806003018054610afb90612c8e565b80601f0160208091040260200160405190810160405280929190818152602001828054610b2790612c8e565b8015610b745780601f10610b4957610100808354040283529160200191610b74565b820191906000526020600020905b815481529060010190602001808311610b5757829003601f168201915b505050505090806004018054610b8990612c8e565b80601f0160208091040260200160405190810160405280929190818152602001828054610bb590612c8e565b8015610c025780601f10610bd757610100808354040283529160200191610c02565b820191906000526020600020905b815481529060010190602001808311610be557829003601f168201915b505050505090806005018054610c1790612c8e565b80601f0160208091040260200160405190810160405280929190818152602001828054610c4390612c8e565b8015610c905780601f10610c6557610100808354040283529160200191610c90565b820191906000526020600020905b815481529060010190602001808311610c7357829003601f168201915b505050505090806006018054610ca590612c8e565b80601f0160208091040260200160405190810160405280929190818152602001828054610cd190612c8e565b8015610d1e5780601f10610cf357610100808354040283529160200191610d1e565b820191906000526020600020905b815481529060010190602001808311610d0157829003601f168201915b505050505090806007018054610d3390612c8e565b80601f0160208091040260200160405190810160405280929190818152602001828054610d5f90612c8e565b8015610dac5780601f10610d8157610100808354040283529160200191610dac565b820191906000526020600020905b815481529060010190602001808311610d8f57829003601f168201915b5050505050905088565b6000806002600084815260200190815260200160002060009054906101000a900473ffffffffffffffffffffffffffffffffffffffff169050600073ffffffffffffffffffffffffffffffffffffffff168173ffffffffffffffffffffffffffffffffffffffff161415610e5f576040517f08c379a0000000000000000000000000000000000000000000000000000000008152600401610e5690612978565b60405180910390fd5b80915050919050565b60008073ffffffffffffffffffffffffffffffffffffffff168273ffffffffffffffffffffffffffffffffffffffff161415610ed9576040517f08c379a0000000000000000000000000000000000000000000000000000000008152600401610ed090612958565b60405180910390fd5b600360008373ffffffffffffffffffffffffffffffffffffffff1673ffffffffffffffffffffffffffffffffffffffff168152602001908152602001600020549050919050565b606061106d6040518060600160405280602a81526020016132ab602a91396040518060400160405280600281526020017f333500000000000000000000000000000000000000000000000000000000000081525061012c6040518060400160405280600581526020017f4468616b61000000000000000000000000000000000000000000000000000000815250604051806080016040528060458152602001613266604591396040518060400160405280600c81526020017f542d73686972742c2062616700000000000000000000000000000000000000008152506040518060400160405280601081526020017f323032322d31302d31335430343a3036000000000000000000000000000000008152506040518060400160405280600981526020017f696d6167652075726c00000000000000000000000000000000000000000000008152506106fc565b506110c56040518060600160405280602a81526020016132ab602a91396040518060400160405280600281526020017f333500000000000000000000000000000000000000000000000000000000000081525061084e565b905090565b60065481565b6060600180546110df90612c8e565b80601f016020809104026020016040519081016040528092919081815260200182805461110b90612c8e565b80156111585780601f1061112d57610100808354040283529160200191611158565b820191906000526020600020905b81548152906001019060200180831161113b57829003601f168201915b5050505050905090565b61117461116d6114a4565b8383611a0b565b5050565b600060068190555060005b60065481101561122e5760076000828152602001908152602001600020600080820160006111b19190611e35565b6001820160006111c19190611e35565b60028201600090556003820160006111d99190611e35565b6004820160006111e99190611e35565b6005820160006111f99190611e35565b6006820160006112099190611e35565b6007820160006112199190611e35565b5050808061122690612cf1565b915050611183565b50565b61124261123c6114a4565b836116c6565b611281576040517f08c379a0000000000000000000000000000000000000000000000000000000008152600401611278906129f8565b60405180910390fd5b61128d84848484611b78565b50505050565b606061129e82611438565b6112dd576040517f08c379a00000000000000000000000000000000000000000000000000000000081526004016112d4906129b8565b60405180910390fd5b60006112e7611bd4565b905060008151116113075760405180602001604052806000815250611332565b8061131184611565565b604051602001611322929190612721565b6040516020818303038152906040525b915050919050565b6000600560008473ffffffffffffffffffffffffffffffffffffffff1673ffffffffffffffffffffffffffffffffffffffff16815260200190815260200160002060008373ffffffffffffffffffffffffffffffffffffffff1673ffffffffffffffffffffffffffffffffffffffff16815260200190815260200160002060009054906101000a900460ff16905092915050565b60007f01ffc9a7000000000000000000000000000000000000000000000000000000007bffffffffffffffffffffffffffffffffffffffffffffffffffffffff1916827bffffffffffffffffffffffffffffffffffffffffffffffffffffffff1916149050919050565b60008073ffffffffffffffffffffffffffffffffffffffff166002600084815260200190815260200160002060009054906101000a900473ffffffffffffffffffffffffffffffffffffffff1673ffffffffffffffffffffffffffffffffffffffff1614159050919050565b600033905090565b816004600083815260200190815260200160002060006101000a81548173ffffffffffffffffffffffffffffffffffffffff021916908373ffffffffffffffffffffffffffffffffffffffff160217905550808273ffffffffffffffffffffffffffffffffffffffff1661151f83610db6565b73ffffffffffffffffffffffffffffffffffffffff167f8c5be1e5ebec7d5bd14f71427d1e84f3dd0314c0f7b2291e5b200ac8c7c3b92560405160405180910390a45050565b606060008214156115ad576040518060400160405280600181526020017f300000000000000000000000000000000000000000000000000000000000000081525090506116c1565b600082905060005b600082146115df5780806115c890612cf1565b915050600a826115d89190612b73565b91506115b5565b60008167ffffffffffffffff8111156115fb576115fa612e27565b5b6040519080825280601f01601f19166020018201604052801561162d5781602001600182028036833780820191505090505b5090505b600085146116ba576001826116469190612ba4565b9150600a856116559190612d3a565b60306116619190612b1d565b60f81b81838151811061167757611676612df8565b5b60200101907effffffffffffffffffffffffffffffffffffffffffffffffffffffffffffff1916908160001a905350600a856116b39190612b73565b9450611631565b8093505050505b919050565b60006116d182611438565b611710576040517f08c379a000000000000000000000000000000000000000000000000000000000815260040161170790612918565b60405180910390fd5b600061171b83610db6565b90508073ffffffffffffffffffffffffffffffffffffffff168473ffffffffffffffffffffffffffffffffffffffff16148061175d575061175c818561133a565b5b8061179b57508373ffffffffffffffffffffffffffffffffffffffff166117838461055f565b73ffffffffffffffffffffffffffffffffffffffff16145b91505092915050565b8273ffffffffffffffffffffffffffffffffffffffff166117c482610db6565b73ffffffffffffffffffffffffffffffffffffffff161461181a576040517f08c379a0000000000000000000000000000000000000000000000000000000008152600401611811906128b8565b60405180910390fd5b600073ffffffffffffffffffffffffffffffffffffffff168273ffffffffffffffffffffffffffffffffffffffff16141561188a576040517f08c379a0000000000000000000000000000000000000000000000000000000008152600401611881906128d8565b60405180910390fd5b611895838383611beb565b6118a06000826114ac565b6001600360008573ffffffffffffffffffffffffffffffffffffffff1673ffffffffffffffffffffffffffffffffffffffff16815260200190815260200160002060008282546118f09190612ba4565b925050819055506001600360008473ffffffffffffffffffffffffffffffffffffffff1673ffffffffffffffffffffffffffffffffffffffff16815260200190815260200160002060008282546119479190612b1d565b92505081905550816002600083815260200190815260200160002060006101000a81548173ffffffffffffffffffffffffffffffffffffffff021916908373ffffffffffffffffffffffffffffffffffffffff160217905550808273ffffffffffffffffffffffffffffffffffffffff168473ffffffffffffffffffffffffffffffffffffffff167fddf252ad1be2c89b69c2b068fc378daa952ba7f163c4a11628f55a4df523b3ef60405160405180910390a4611a06838383611bf0565b505050565b8173ffffffffffffffffffffffffffffffffffffffff168373ffffffffffffffffffffffffffffffffffffffff161415611a7a576040517f08c379a0000000000000000000000000000000000000000000000000000000008152600401611a71906128f8565b60405180910390fd5b80600560008573ffffffffffffffffffffffffffffffffffffffff1673ffffffffffffffffffffffffffffffffffffffff16815260200190815260200160002060008473ffffffffffffffffffffffffffffffffffffffff1673ffffffffffffffffffffffffffffffffffffffff16815260200190815260200160002060006101000a81548160ff0219169083151502179055508173ffffffffffffffffffffffffffffffffffffffff168373ffffffffffffffffffffffffffffffffffffffff167f17307eab39ab6107e8899845ad3d59bd9653f200f220920489ca2b5937696c3183604051611b6b91906127ac565b60405180910390a3505050565b611b838484846117a4565b611b8f84848484611bf5565b611bce576040517f08c379a0000000000000000000000000000000000000000000000000000000008152600401611bc590612898565b60405180910390fd5b50505050565b606060405180602001604052806000815250905090565b505050565b505050565b6000611c168473ffffffffffffffffffffffffffffffffffffffff16611d8c565b15611d7f578373ffffffffffffffffffffffffffffffffffffffff1663150b7a02611c3f6114a4565b8786866040518563ffffffff1660e01b8152600401611c619493929190612760565b602060405180830381600087803b158015611c7b57600080fd5b505af1925050508015611cac57506040513d601f19601f82011682018060405250810190611ca991906121cb565b60015b611d2f573d8060008114611cdc576040519150601f19603f3d011682016040523d82523d6000602084013e611ce1565b606091505b50600081511415611d27576040517f08c379a0000000000000000000000000000000000000000000000000000000008152600401611d1e90612898565b60405180910390fd5b805181602001fd5b63150b7a0260e01b7bffffffffffffffffffffffffffffffffffffffffffffffffffffffff1916817bffffffffffffffffffffffffffffffffffffffffffffffffffffffff191614915050611d84565b600190505b949350505050565b6000808273ffffffffffffffffffffffffffffffffffffffff163b119050919050565b828054611dbb90612c8e565b90600052602060002090601f016020900481019282611ddd5760008555611e24565b82601f10611df657805160ff1916838001178555611e24565b82800160010185558215611e24579182015b82811115611e23578251825591602001919060010190611e08565b5b509050611e319190611e75565b5090565b508054611e4190612c8e565b6000825580601f10611e535750611e72565b601f016020900490600052602060002090810190611e719190611e75565b5b50565b5b80821115611e8e576000816000905550600101611e76565b5090565b6000611ea5611ea084612a58565b612a33565b905082815260208101848484011115611ec157611ec0612e5b565b5b611ecc848285612c4c565b509392505050565b6000611ee7611ee284612a89565b612a33565b905082815260208101848484011115611f0357611f02612e5b565b5b611f0e848285612c4c565b509392505050565b600081359050611f2581613209565b92915050565b600081359050611f3a81613220565b92915050565b600081359050611f4f81613237565b92915050565b600081519050611f6481613237565b92915050565b600082601f830112611f7f57611f7e612e56565b5b8135611f8f848260208601611e92565b91505092915050565b600082601f830112611fad57611fac612e56565b5b8135611fbd848260208601611ed4565b91505092915050565b600081359050611fd58161324e565b92915050565b600060208284031215611ff157611ff0612e65565b5b6000611fff84828501611f16565b91505092915050565b6000806040838503121561201f5761201e612e65565b5b600061202d85828601611f16565b925050602061203e85828601611f16565b9150509250929050565b60008060006060848603121561206157612060612e65565b5b600061206f86828701611f16565b935050602061208086828701611f16565b925050604061209186828701611fc6565b9150509250925092565b600080600080608085870312156120b5576120b4612e65565b5b60006120c387828801611f16565b94505060206120d487828801611f16565b93505060406120e587828801611fc6565b925050606085013567ffffffffffffffff81111561210657612105612e60565b5b61211287828801611f6a565b91505092959194509250565b6000806040838503121561213557612134612e65565b5b600061214385828601611f16565b925050602061215485828601611f2b565b9150509250929050565b6000806040838503121561217557612174612e65565b5b600061218385828601611f16565b925050602061219485828601611fc6565b9150509250929050565b6000602082840312156121b4576121b3612e65565b5b60006121c284828501611f40565b91505092915050565b6000602082840312156121e1576121e0612e65565b5b60006121ef84828501611f55565b91505092915050565b6000806040838503121561220f5761220e612e65565b5b600083013567ffffffffffffffff81111561222d5761222c612e60565b5b61223985828601611f98565b925050602083013567ffffffffffffffff81111561225a57612259612e60565b5b61226685828601611f98565b9150509250929050565b600080600080600080600080610100898b03121561229157612290612e65565b5b600089013567ffffffffffffffff8111156122af576122ae612e60565b5b6122bb8b828c01611f98565b985050602089013567ffffffffffffffff8111156122dc576122db612e60565b5b6122e88b828c01611f98565b97505060406122f98b828c01611fc6565b965050606089013567ffffffffffffffff81111561231a57612319612e60565b5b6123268b828c01611f98565b955050608089013567ffffffffffffffff81111561234757612346612e60565b5b6123538b828c01611f98565b94505060a089013567ffffffffffffffff81111561237457612373612e60565b5b6123808b828c01611f98565b93505060c089013567ffffffffffffffff8111156123a1576123a0612e60565b5b6123ad8b828c01611f98565b92505060e089013567ffffffffffffffff8111156123ce576123cd612e60565b5b6123da8b828c01611f98565b9150509295985092959890939650565b600060208284031215612400576123ff612e65565b5b600061240e84828501611fc6565b91505092915050565b61242081612bd8565b82525050565b61242f81612bea565b82525050565b600061244082612acf565b61244a8185612ae5565b935061245a818560208601612c5b565b61246381612e6a565b840191505092915050565b6000815461247b81612c8e565b6124858186612af6565b945060018216600081146124a057600181146124b1576124e4565b60ff198316865281860193506124e4565b6124ba85612aba565b60005b838110156124dc578154818901526001820191506020810190506124bd565b838801955050505b50505092915050565b60006124f882612ada565b6125028185612b01565b9350612512818560208601612c5b565b61251b81612e6a565b840191505092915050565b600061253182612ada565b61253b8185612b12565b935061254b818560208601612c5b565b80840191505092915050565b6000612564603283612b01565b915061256f82612e7b565b604082019050919050565b6000612587602583612b01565b915061259282612eca565b604082019050919050565b60006125aa602483612b01565b91506125b582612f19565b604082019050919050565b60006125cd601983612b01565b91506125d882612f68565b602082019050919050565b60006125f0602c83612b01565b91506125fb82612f91565b604082019050919050565b6000612613603883612b01565b915061261e82612fe0565b604082019050919050565b6000612636602a83612b01565b91506126418261302f565b604082019050919050565b6000612659602983612b01565b91506126648261307e565b604082019050919050565b600061267c602c83612b01565b9150612687826130cd565b604082019050919050565b600061269f602f83612b01565b91506126aa8261311c565b604082019050919050565b60006126c2602183612b01565b91506126cd8261316b565b604082019050919050565b60006126e5603183612b01565b91506126f0826131ba565b604082019050919050565b61270481612c42565b82525050565b6000612716828461246e565b915081905092915050565b600061272d8285612526565b91506127398284612526565b91508190509392505050565b600060208201905061275a6000830184612417565b92915050565b60006080820190506127756000830187612417565b6127826020830186612417565b61278f60408301856126fb565b81810360608301526127a18184612435565b905095945050505050565b60006020820190506127c16000830184612426565b92915050565b600060208201905081810360008301526127e181846124ed565b905092915050565b6000610100820190508181036000830152612804818b6124ed565b90508181036020830152612818818a6124ed565b905061282760408301896126fb565b818103606083015261283981886124ed565b9050818103608083015261284d81876124ed565b905081810360a083015261286181866124ed565b905081810360c083015261287581856124ed565b905081810360e083015261288981846124ed565b90509998505050505050505050565b600060208201905081810360008301526128b181612557565b9050919050565b600060208201905081810360008301526128d18161257a565b9050919050565b600060208201905081810360008301526128f18161259d565b9050919050565b60006020820190508181036000830152612911816125c0565b9050919050565b60006020820190508181036000830152612931816125e3565b9050919050565b6000602082019050818103600083015261295181612606565b9050919050565b6000602082019050818103600083015261297181612629565b9050919050565b600060208201905081810360008301526129918161264c565b9050919050565b600060208201905081810360008301526129b18161266f565b9050919050565b600060208201905081810360008301526129d181612692565b9050919050565b600060208201905081810360008301526129f1816126b5565b9050919050565b60006020820190508181036000830152612a11816126d8565b9050919050565b6000602082019050612a2d60008301846126fb565b92915050565b6000612a3d612a4e565b9050612a498282612cc0565b919050565b6000604051905090565b600067ffffffffffffffff821115612a7357612a72612e27565b5b612a7c82612e6a565b9050602081019050919050565b600067ffffffffffffffff821115612aa457612aa3612e27565b5b612aad82612e6a565b9050602081019050919050565b60008190508160005260206000209050919050565b600081519050919050565b600081519050919050565b600082825260208201905092915050565b600081905092915050565b600082825260208201905092915050565b600081905092915050565b6000612b2882612c42565b9150612b3383612c42565b9250827fffffffffffffffffffffffffffffffffffffffffffffffffffffffffffffffff03821115612b6857612b67612d6b565b5b828201905092915050565b6000612b7e82612c42565b9150612b8983612c42565b925082612b9957612b98612d9a565b5b828204905092915050565b6000612baf82612c42565b9150612bba83612c42565b925082821015612bcd57612bcc612d6b565b5b828203905092915050565b6000612be382612c22565b9050919050565b60008115159050919050565b60007fffffffff0000000000000000000000000000000000000000000000000000000082169050919050565b600073ffffffffffffffffffffffffffffffffffffffff82169050919050565b6000819050919050565b82818337600083830152505050565b60005b83811015612c79578082015181840152602081019050612c5e565b83811115612c88576000848401525b50505050565b60006002820490506001821680612ca657607f821691505b60208210811415612cba57612cb9612dc9565b5b50919050565b612cc982612e6a565b810181811067ffffffffffffffff82111715612ce857612ce7612e27565b5b80604052505050565b6000612cfc82612c42565b91507fffffffffffffffffffffffffffffffffffffffffffffffffffffffffffffffff821415612d2f57612d2e612d6b565b5b600182019050919050565b6000612d4582612c42565b9150612d5083612c42565b925082612d6057612d5f612d9a565b5b828206905092915050565b7f4e487b7100000000000000000000000000000000000000000000000000000000600052601160045260246000fd5b7f4e487b7100000000000000000000000000000000000000000000000000000000600052601260045260246000fd5b7f4e487b7100000000000000000000000000000000000000000000000000000000600052602260045260246000fd5b7f4e487b7100000000000000000000000000000000000000000000000000000000600052603260045260246000fd5b7f4e487b7100000000000000000000000000000000000000000000000000000000600052604160045260246000fd5b600080fd5b600080fd5b600080fd5b600080fd5b6000601f19601f8301169050919050565b7f4552433732313a207472616e7366657220746f206e6f6e20455243373231526560008201527f63656976657220696d706c656d656e7465720000000000000000000000000000602082015250565b7f4552433732313a207472616e736665722066726f6d20696e636f72726563742060008201527f6f776e6572000000000000000000000000000000000000000000000000000000602082015250565b7f4552433732313a207472616e7366657220746f20746865207a65726f2061646460008201527f7265737300000000000000000000000000000000000000000000000000000000602082015250565b7f4552433732313a20617070726f766520746f2063616c6c657200000000000000600082015250565b7f4552433732313a206f70657261746f7220717565727920666f72206e6f6e657860008201527f697374656e7420746f6b656e0000000000000000000000000000000000000000602082015250565b7f4552433732313a20617070726f76652063616c6c6572206973206e6f74206f7760008201527f6e6572206e6f7220617070726f76656420666f7220616c6c0000000000000000602082015250565b7f4552433732313a2062616c616e636520717565727920666f7220746865207a6560008201527f726f206164647265737300000000000000000000000000000000000000000000602082015250565b7f4552433732313a206f776e657220717565727920666f72206e6f6e657869737460008201527f656e7420746f6b656e0000000000000000000000000000000000000000000000602082015250565b7f4552433732313a20617070726f76656420717565727920666f72206e6f6e657860008201527f697374656e7420746f6b656e0000000000000000000000000000000000000000602082015250565b7f4552433732314d657461646174613a2055524920717565727920666f72206e6f60008201527f6e6578697374656e7420746f6b656e0000000000000000000000000000000000602082015250565b7f4552433732313a20617070726f76616c20746f2063757272656e74206f776e6560008201527f7200000000000000000000000000000000000000000000000000000000000000602082015250565b7f4552433732313a207472616e736665722063616c6c6572206973206e6f74206f60008201527f776e6572206e6f7220617070726f766564000000000000000000000000000000602082015250565b61321281612bd8565b811461321d57600080fd5b50565b61322981612bea565b811461323457600080fd5b50565b61324081612bf6565b811461324b57600080fd5b50565b61325781612c42565b811461326257600080fd5b5056fe4120542d7368697274207769746820746865207769647468206f662035202220616e6420686569676874206f6620372220616e64206120626167206f662034302063656c6f307831363865303037643966356137393437393465343030333563353231343936336362313662666237a2646970667358221220ee69637725cbc5490c76c79440c6d299831ce414d6221a401becd763209a289864736f6c63430008060033",
  "linkReferences": {},
  "deployedLinkReferences": {}
}